:020000041000EA
:1000000000B5324B212058609868022188439860DF
:10001000D860186158612E4B002199600221596106
:100020000121F02299502B49196001219960352056
:1000300000F044F80222904214D00621196600F024
:1000400034F8196E01211966002018661A6600F04E
:100050002CF8196E196E196E052000F02FF8012189
:100060000842F9D1002199601B49196000215960AB
:100070001A491B48016001219960EB211966A021F2
:10008000196600F012F800219960164914480160C1
:100090000121996001BC002800D000471248134993
:1000A000086003C880F30888084703B5996A0420EC
:1000B0000142FBD001200142F8D103BD02B5186610
:1000C0001866FFF7F2FF186E186E02BD00000240BE
:1000D000000000180000070000035F00212200005C
:1000E000F4000018222000A00001001008ED00E03C
:1000F00000000000000000000000000074B24E7A12
:1001000000200420F7010010C3010010C5010010F9
:10011000C1010010C1010010C1010010C101001097
:10012000C1010010C1010010C1010010C701001081
:10013000C1010010C1010010C9010010CB01001065
:10014000CD010010CD010010CD010010CD01001037
:10015000CD010010CD010010CD010010CD01001027
:10016000CD010010CD010010CD010010CD01001017
:10017000CD010010CD010010CD010010CD01001007
:10018000CD010010CD010010CD010010CD010010F7
:10019000CD010010CD010010CD010010CD010010E7
:1001A000CD010010CD010010CD010010CD010010D7
:1001B000CD010010CD010010CD010010CD010010C7
:1001C00000BE00BE00BE00BE00BE00BEEFF3058054
:1001D000103800BEF2EB8871DC650010F865001085
:1001E0003402001090A31AE700201F49086006C8D7
:1001F00081F3088810471D48006800282FD10DA4FE
:100200000ECC002902D000F012F8F9E71849194A7B
:10021000002000E001C19142FCD1174988471749ED
:1002200088471749884700BEFDE701C901C29A42C5
:10023000FBD37047F8650010C0000020800C002040
:10024000B87100100000042000000420B8710010F4
:10025000001004200010042000000000704709482E
:1002600002F08EFF0047000008ED00E0000000D023
:10027000800C0020C8110020091F0010110300107D
:10028000C51E00105756000006005250ABB3605315
:10029000685E001006005250861C0302785E001053
:1002A000060052505422A29D805E0010050052505C
:1002B000DE65F468B8710010F8B5C04610B5064C9C
:1002C0002378002B07D1054B002B02D0044800E017
:1002D00000BF0123237010BD800D0020000000002E
:1002E000604E0010044B10B5002B03D003490448A6
:1002F00000E000BF10BDC04600000000840D0020DB
:10030000604E001010B503F029FE03F0CDFFFCE7AE
:1003100010B5FFF7F7FF000010B58300084A9446B8
:1003200063441C6840226240C02414408022520171
:1003300013431C60C000034B9C466044416010BDE9
:1003400004C001400040014080000B4B9C466044CB
:1003500000290DD00823002A0CD004221343026880
:1003600053400C2213408022520110430360704717
:100370000023F0E70022F1E704C0014010B501239B
:100380008340D0221206936293610521FFF7C4FFD8
:1003900010BD0000034B1B6802201840431E98410B
:1003A000C0B2704700C00640EFF3108072B6034B36
:1003B0001B68002BFBD0BFF35F8F70472C0100D070
:1003C000BFF35F8F024B00221A6080F310887047E2
:1003D0002C0100D0F8B506000C001500FFF7E4FF73
:1003E000E308F718F15C07222240012393400B42F7
:1003F00005D1DBB20B433B70FFF7E2FFF8BD2100F4
:10040000280001F0FDFD0000002307E0054A9A18CE
:100410009200BFF35F8F0021116001331F2BF5D9CC
:100420007047C04640000034054A1078431CDBB2D8
:100430001370172B02D9130010221A707047C04690
:1004400078030020074B9B68103080001950BFF3E1
:100450005F8FBFF35F8F044B0021196082F3108818
:100460007047C04600ED00E0240100D010B5091A25
:10047000081F0A4B9C466144094A914208D8C307A9
:1004800006D440104005400D064B184380B210BD05
:10049000054B064AA321064801F018FDFC070000A1
:1004A000FE0F000000E0FFFF604E0010D050001073
:1004B000904E001010B5091A04394C08090B08D1E8
:1004C0004905490D064A11430180064B23434380E9
:1004D00010BD054B054AAB21054801F0F7FCC046AD
:1004E00000F0FFFF00F8FFFFEC4E0010A4500010DA
:1004F000904E001001238340034A10681840431EA9
:100500009841C0B27047C04600E100E0002904D025
:10051000034B1860034B18607047034B1860FBE7F0
:1005200080E200E000E100E080E100E010B501239E
:1005300083401800FFF7EAFF10BD0000024B9B68E4
:1005400010308000C058704700ED00E070B5040026
:100550000D00EFF3108672B60C4B1B68002BFBD01E
:10056000BFF35F8F2000FFF7E9FF094B984201D0EE
:10057000A84205D1320029002000FFF763FF70BDBB
:10058000044B054A8621054801F0A0FC240100D057
:10059000CD010010FC4E0010EC500010904E0010E9
:1005A000F0B5CE46474680B583B006000D00EFF3A8
:1005B000108872B6564B1B68002BFBD0BFF35F8FC1
:1005C000544B9A6834001034A300D758524B9F42C2
:1005D00007D0AF4200D198E00197504BFB1A3B2B5C
:1005E00009D9424639003000FFF72CFF03B0C0BCE8
:1005F000B946B046F0BD3000FFF77CFF81460021D0
:100600003000FFF793FFBFF35F8FEFF30581002901
:1006100001D08C4211D10123019C9C430022A3688C
:10062000AB4212D00622A256002A0DDB53009B18C3
:100630009B002200394CE418F1E73621384B394A47
:10064000FF31394801F042FC2200AB4256D1062569
:100650006557002D38DB6B005B199A002F4B9B18F8
:100660009A68A260DA79E27106229A56A2719B79A1
:100670005BB2002B0FDA2D48A0806B005B199B004A
:10068000264AD3182A4A11789971157049463000C4
:10069000FFF74CFFA5E7201D6B005B199B001F4A6D
:1006A0009B181A1D9B88D90A1C2907D15B055B156D
:1006B000023359005118FFF7D9FEDDE71D4B1E4AE2
:1006C000B121194801F002FC002912D1002A0ED0F4
:1006D000FF239371194B9380154A1378A371184B1C
:1006E0000E49641A644163431B0D1370CEE70A4F31
:1006F000F2E7201D1349FFF7DDFEC7E76A21124B21
:10070000084AFF31084801F0E1FB034F69E7C046A2
:10071000240100D000ED00E0CD0100107C0300209A
:1007200010500010BC500010904E001001BD000091
:10073000C6110020F84F0010DC50001001BDFFFF73
:10074000AAAA0000C20300204450001070B5012185
:1007500001432E4BCB1A3B2B28D8EFF30583002BFC
:100760002BD0EFF3108C72B6294A1268002AFBD006
:10077000BFF35F8F274A0400244D641B644162432A
:10078000120D54B2244A92689B00D2588A421BD060
:100790000022042A32D853009B189B001B49CB1817
:1007A0009B795BB2A3421FD00132F2E7C7211B4BFA
:1007B0001B4A49001B4801F089FB92211A4B184A39
:1007C000FF31184801F082FB134A92681749D15053
:1007D000174B1A7882711C70BFF35F8F0C4B00228D
:1007E0001A608CF3108870BD0D00530099188900B1
:1007F0006918FF268E710F4A8A80E9E7D1210E4BD6
:10080000074A4900074801F061FBC0467C0300200D
:10081000240100D0AAAA000000ED00E04C50001016
:1008200088500010904E001074500010CD01001040
:10083000C611002001BDFFFF805000100022044BB4
:1008400002E0044902C30132072AFAD97047C046C0
:1008500000E400E080808080024B9C466144890077
:10086000016070474000003410B50400FFF7DCFD64
:1008700001002000FFF7F0FFFF232371BFF35F8F1C
:1008800010BD10B50400FFF7CFFD01002000FFF7F9
:10089000E3FFFF23237100236371BFF35F8F10BD5C
:1008A00070B505000C00080000F0FEFE09492000AC
:1008B00000F03EFEFFF7B8FD074B9C466044800009
:1008C00068602C75D0231B061B786B75A400034B46
:1008D000E55070BDE50B001040000034940F00207F
:1008E0000A4B1A68EFF3108172B61368002BFCD024
:1008F000BFF35F8F054B1B68BFF35F8F00221A6049
:1009000081F3108840BF002000217047B011002003
:1009100010B5002922D003681B7B99421ED8174BC3
:100920009C466144090183689C4661440C6849689F
:10093000002A19D003681B7B9A4215D883680F4898
:100940008446624412019A1810685368020001201C
:100950008B4201D80ED00020C0B210BD084B094A0E
:100960003C21094801F0B2FA054B064A3C210648F1
:1009700001F0ACFAA242EFD8EDE7C046FFFFFF0F4F
:10098000BC5200103C5500106852001010B50029F0
:100990001ED0037B99421BD84B005B18033B0468B5
:1009A000A4466344002919D0002A1DD0914221D0C9
:1009B000002A25D0047BA24222D804685000801867
:1009C000033820188170197800291FD11A7010BDC2
:1009D000104B114A6821114801F078FA104B114A66
:1009E0006F310E4801F072FA0F4B0E4A70210B481E
:1009F00001F06CFA0D4B0B4A7121084801F066FAC0
:100A0000044B054A6821054801F060FA41701A70EC
:100A1000DDE7C046E0520010A8550010FC5200105F
:100A20006453001084550010705300107C53001064
:100A300070B506000D001400002914D0002A14D04F
:100A4000806873689847002806D02200290030008B
:100A5000FFF79CFF280007E02A0021003000FFF785
:100A600095FF200000E0100070BD0800FCE70000CA
:100A7000F0B583B00500009201930AAB1C780BAB74
:100A80001F78002C26D003685A7B944207D101239B
:100A9000002B19D1002C3BD1200003B0F0BD002C5D
:100AA0000CD01A7B944209D81A6863001B19033BC7
:100AB000D3189B78002BEBD00123E9E73E4B3F4A4C
:100AC00068213F4801F002FA3E4B3F4A67213F4808
:100AD00001F0FCF903689C7B002CDBD012D01A7B60
:100AE00094420FD862001219033A19688C46624486
:100AF00051789973002900D1D973002393705370F2
:100B00001370C7E72C4B2D4A68212D4801F0DEF900
:100B1000002C3AD02B681B7B9C4236D82C4BE31818
:100B20001B01AA6894466344009A1A60019A5A60AD
:100B3000089A9A60099ADA602E68002C2BD030D07F
:100B4000337B9C422DD863001B19033B32689446CB
:100B5000634400229A705A701A70717B2200300030
:100B6000FFF766FF7073844200D095E7287D009AF6
:100B7000019B00F025FD061E01D0002F17D00C9B15
:100B8000002B00D188E71E7086E7124B124A3C21E9
:100B90000E4801F09BF9114B114AA521084801F0BC
:100BA00095F9054B054A6821054801F08FF9286839
:100BB000210000F03DFFE2E7E0520010A8550010D0
:100BC000FC52001094530010B455001068520010ED
:100BD000FFFFFF0FBC5200103C5500106452001084
:100BE00098550010F0B5DE4657464E464546E0B5EE
:100BF0008BB00990002308938200B54BD65837007C
:100C000052E0B44BB44A3F21B44801F05FF9B44B11
:100C1000B44A3C21B44801F059F9002901D1002817
:100C200069D10021404600F0F9FEA04219D12A689E
:100C30006B6806920793AB689846EB689A46434602
:100C4000002B14D0002C18D03B681B7B9C4214D87E
:100C5000631EFA68D35C08931B02184338610020B6
:100C600015E0A24BA24A8E219F4801F02FF9A14B1B
:100C70009F4A92219C4801F029F9994B9E4A4121B3
:100C8000994801F023F900239A46984600207B6892
:100C9000BFF35F8F00221A6086F310884346002B53
:100CA00032D1002800D10CE100F0FEFB02000B1E47
:100CB000A7DB00200021069007917868EFF31086EB
:100CC00072B601680029FCD0BFF35F8F396888468F
:100CD0004C7B002CD7D09AD0097B8C4297D887497F
:100CE00065182D01B9688C46654428686968801AC2
:100CF0009941002991DD2A686B68099800F060FC31
:100D000000239A469846C2E7089B1B022343994654
:100D100051461800C04705000E007A68EFF3108BAB
:100D200072B6136859424B41D9B2002BF9D1BFF3C7
:100D30005F8F002E1EDB002E46DD3B69002B47D067
:100D40004B456DD100F0B0FB02000B1E6EDB52195B
:100D50007341002B70DB002B72DB00210491013109
:100D60000391029451460191414600913800FFF7EA
:100D70007FFE4CE03B69002BDDD04B4514D1069A39
:100D8000079B521BB341002B14DB002B16DB002109
:100D90000491013103910294514601914146009121
:100DA0003800FFF765FE32E0554B514AA1214E480D
:100DB00001F08CF801225242524BE6E7454B464A7D
:100DC0003F21464801F082F8002E01D1002DB4D118
:100DD0003B68002C50D05A7B944237D10121002926
:100DE0004AD1DA7B002A4DD19A7B002A03D1DA7BE3
:100DF000002A5AD19C73DC73002C5CD03B681B7BAF
:100E00009C4258D8FA68013C135D01331355002306
:100E10003B617A68BFF35F8F13608BF3108843E701
:100E2000374B334AA421304801F050F8294B2A4A65
:100E30003F212A4801F04AF801225242314B8AE709
:100E4000244B254A3F21254801F040F8002C0DD0C5
:100E50001A7B94420AD862001219033A1868844631
:100E600062449278002ABAD00121B8E7264B274A7B
:100E70006821274801F02AF8264B274AF621244802
:100E800001F024F8002A0AD0197B8A4207D85100C1
:100E90008A18033A19688C4662445470A4E71A4BC6
:100EA0001A4A68211A4801F011F81C4B1A4AFB2112
:100EB000174801F00BF80A4B0F4A41210A4801F08C
:100EC00005F80BB0F0BCBB46B246A946A046F0BD43
:100ED000940F002078510010085500109451001014
:100EE000BC5200103C55001068520010BC5300105A
:100EF00020550010D453001060550010FFFFFF0F65
:100F0000E0530010FFFFFF7FE0520010A8550010D3
:100F1000FC5200101C540010745500104054001076
:100F200010B50C4B5B68002B04D00A210A48FFF770
:100F300093FC10BD074C2300084A1021206800F0E4
:100F40007DFC032000F0A4FA03212000FFF7A8FC99
:100F5000EBE7C046D0030020B011002011090010BB
:100F600010B5064B5B68002B01D0044810BD044B44
:100F7000044A5E21044800F0A9FFC046D0030020C7
:100F8000545400104855001068520010F0B5DE4669
:100F900057464E464546E0B58BB0804616001F00CA
:100FA000149B9A46159B994616AB1B789B461F23AC
:100FB00002AA9446634400221A702BE0002809D04C
:100FC00042461268127B904204D8421E4146C968CC
:100FD0008A5C41E0404B414A4121414800F076FFA4
:100FE00007984CE0361BAF41002F07DB002F11DACA
:100FF0003C4B3D4A3F213D4800F068FF01267642C8
:101000003B4FF3E7374B384A3F21384800F05EFF4B
:10101000002F4FDB43465A68EFF3108472B6136813
:1010200059424B41D9B20791002BF8D1BFF35F8FE2
:101030001F3302AA9446634404930023039302934C
:101040004B4601935346009332003B004046FFF766
:101050000FFD031EB2D1020041464968BFF35F8F06
:1010600000250D6084F31088002B29D01F2302A9CE
:101070008C4663441B78002BB2D112021043002B24
:1010800020D05B46002B1DD04946D04704000D0000
:1010900003000B431DD00029A4DB00F005FA060075
:1010A0000F1EAFDB36196F41002FB1DA01267642F1
:1010B0000F4FADE70B4B0C4A3F210C4800F006FFE9
:1010C000012040420BB0F0BCBB46B246A946A04648
:1010D000F0BD0798F6E7C046BC52001060550010FE
:1010E00068520010785100100855001094510010FB
:1010F000FFFFFF7FF8B50400002900D162E04268DD
:10110000EFF3108572B6136858424341D8B2002BF2
:10111000F9D1BFF35F8FCBB22268567BB3421BD1AC
:101120000120002848D0206988422BD0090AC9B282
:10113000002B2ED02068007B83422AD8581EE668F8
:10114000305C88422BD000206368BFF35F8F0022A1
:101150001A6085F31088F8BD002B0DD0167BB342C2
:101160000AD85E00F618033E1768BC466644B67897
:10117000002ED6D00120D4E7134B144A682114481E
:1011800000F0A4FE2C21134B134AFF31134800F04A
:101190009DFE134B134A4121104800F097FE1900A1
:1011A000100000F045FC0028CED199210E4B0A4AD0
:1011B00049000A4800F08AFE23698B42C4D100230B
:1011C0002361C1E70020C6E7E0520010A8550010D7
:1011D000FC52001078540010F054001068520010B7
:1011E000BC520010605500109C540010F0B587B040
:1011F00006000F00EFF30583002B1FD10624644285
:10120000E517A4197D418D4202D803D1844201D94A
:1012100000240025002D14DB0494059500F044F90A
:1012200002000B1E13DBA41A9D41002D17DC14D005
:101230003000390000F044F907B0F0BD234800F059
:10124000DFFE234B234A3F21234800F03FFE204B83
:10125000204A3F21204800F039FE002CE8D0FFF75B
:101260007FFE0023029301931C4B0093049A059B7D
:10127000FFF78CFE002818DADAE7002300E00023ED
:10128000002BD5D1164B1A68EFF3108172B6136894
:10129000002BFCD0BFF35F8F114B1B68BFF35F8F38
:1012A00000221A6081F3108820BF0499059A0D4B23
:1012B0005B6A9A42E3D80B48806A884203D29A421A
:1012C000DBD00123DCE70123DAE7C046A05400109D
:1012D000785100100855001094510010E1080010DA
:1012E000B01100200040054070B504000D0000F072
:1012F000DBF802000B1E0ADB200029008018594190
:1013000000290ADB00290CDBFFF770FF70BD084BDA
:10131000084A3F21084800F0D9FD01204042074912
:10132000F0E7034B034A3F21034800F0CFFDC046DE
:10133000785100100855001094510010FFFFFF7FF6
:1013400010B5FA2292000023002102F013FBFFF7F0
:10135000CBFF10BD70B584B005000C00EFF3058322
:10136000002B1ED1FFF7FCFD002302930193224BBB
:1013700000932A002300FFF709FE061E23DD20BF8D
:10138000FFF7EEFD3100FFF7B5FE1C4B5B6A9C4298
:101390002DD81A4A926AAA422CD29C4225D001200A
:1013A00026E0164B5B6A994209D8144A926A824237
:1013B00007D2994201D001201AE0002018E0002055
:1013C00016E0012014E00D4B5B6A9C4209D80B4AE1
:1013D000926AAA4207D29C4201D0012008E0002074
:1013E00006E0002004E0012002E0002000E00020F0
:1013F00004B070BD0120FBE7E1080010004005408B
:1014000070B5EFF305801038EFF3108C72B61A4BFD
:101410001B68002BFBD0BFF35F8F012213008340BA
:1014200016494B6316490B60164909780C00C440F5
:10143000224214D0114A546A8200134D52599442E8
:1014400006D38200114C125999430E4B197007E0D4
:101450000A4A031D9B0099589950002200E000227F
:10146000BFF35F8F044B002119608CF31088002AB2
:1014700000D0904770BDC046280100D00040054014
:101480003C700540C7110020B4110020D40D00208D
:1014900010B50100024A0348FEF79CFF10BDC0468C
:1014A000D8550010C5110020044B5B6A034A906AAE
:1014B0001900536A9942F9D17047C046004005406F
:1014C000084B5B6A01E0074B5B6A8B42FBD301E090
:1014D000044B5B6A8B4203D1024B9B6A8342F7D376
:1014E0007047C0460040054070B504000D00FFF78E
:1014F000DBFF02000B0020002900801859418B42BD
:1015000002D804D1824202D901204042C1170029E9
:1015100002DBFFF7D5FF70BD024B034A3F210348B2
:1015200000F0D4FC785100109C560010945100102B
:1015300070B504000D00EFF3108672B61B4B1B68EC
:10154000002BFBD0BFF35F8F002D1CD02000FEF7D7
:10155000F5FF174B83420BD019002000FEF7F6FF72
:1015600001212000FEF7E2FF0123A340114A13608E
:10157000A400114BE550BFF35F8F0C4B00221A60A3
:1015800086F3108870BDA2000B4B0021D1500122C0
:10159000A2400A490B7893430B7005492000FEF7DF
:1015A000FFFF00212000FEF7C1FFE4E7280100D083
:1015B0000114001038600540D40D0020C711002030
:1015C000F0B5DE4600B584B00400150001921E009F
:1015D0000293FFF769FF03958E4202D84ED18542F0
:1015E0004CD9EFF3108B72B6274B1B68002BFBD046
:1015F000BFF35F8F254A17780125A540EBB23B4327
:101600001370234B5D63221D92000199D150A200FB
:101610002049029850501B6A2B4212D11C4B1B6C64
:101620002B4208D00020BFF35F8F174B00221A60B7
:101630008BF3108823E0184B184AC521184800F096
:1016400045FCFFF731FF8E4214D802D1039B834241
:1016500010D80E4B1B78BB420ED00D4B1D625D6344
:101660001F2004400123A3400E4A1360074B1F7044
:101670001E38D8E70020D6E70120D4E7012004B0C7
:1016800080BCBB46F0BDC046280100D0C711002079
:1016900000400540B4110020FC5500108056001099
:1016A0002056001080E200E0EFF3108C72B60B4B76
:1016B0001B68002BFBD0BFF35F8F01238340084AD8
:1016C000136208490A789A430A70BFF35F8F034B8D
:1016D00000221A608CF310887047C046280100D0A1
:1016E00000400540C711002010B500291ED0037B23
:1016F00099421BD84B005B18033B0468A446634423
:10170000002919D0002A1DD0914221D0002A25D0CD
:10171000047BA24222D804685000801803382018A5
:101720008170197800291FD11A7010BD104B114A11
:101730006821114800F0CAFB104B114A6F310E4866
:1017400000F0C4FB0F4B0E4A70210B4800F0BEFBAB
:101750000D4B0B4A7121084800F0B8FB044B054AB9
:101760006821054800F0B2FB41701A70DDE7C04601
:10177000E0520010BC570010FC52001064530010DF
:10178000A8570010705300107C53001070B506006D
:101790000D001400002914D0002A14D0806873684A
:1017A0009847002806D0220029003000FFF79CFF50
:1017B000280007E02A0021003000FFF795FF2000F5
:1017C00000E0100070BD0800FCE7000010B5002329
:1017D000437301338373037BC3730123027B9A42F8
:1017E00014D9002B0CD0027B934209D85A00D2188E
:1017F000033A01688C4662440133DBB25370EDE773
:101800000B4B0C4A68210C4800F060FB002A09D001
:10181000924207D8016853009A18033A8A180023A5
:10182000537010BD024B034A6821034800F04EFB81
:10183000E0520010BC570010FC52001010B50173AC
:1018400042608360FFF7C2FF10BD000070B5040066
:10185000081E00D170BD002934D0237B994231D8B5
:101860004B005B18033B2268944663445A78002A75
:10187000F0D02DD0237B9A422AD853009B18033BEB
:1018800021688C4663445D7800215970002825D07A
:10189000237B984222D843001B18033B21688C46C7
:1018A00063440021597001002000FFF76FFF06001C
:1018B00029002000FFF7CAFF020031002000FFF7D7
:1018C00065FFC7E7084B094A6821094800F0FEFA9E
:1018D000054B064A6821064800F0F8FA024B034A15
:1018E0006821034800F0F2FAE0520010BC570010E3
:1018F000FC52001070B505000C00160000292FD016
:1019000034D0037B994231D84B005B18033B02680B
:10191000944663445A78002A2ED19A78002A31D10D
:101920001978FFF793FF0300002E0AD0EA7B002A04
:101930002ED1AA7B002A03D1EA7B002A3BD1AC73CB
:10194000EC73002B3DD1002C4FD02B7B9C424CD80C
:101950002B6861000C19033C1C190023637070BDD7
:10196000254B264A3821264800F0B0FA254B264A56
:101970006821264800F0AAFA254B204A3A2120483F
:1019800000F0A4FA234B1D4A3B211D4800F09EFAAB
:10199000002A0AD0297B8A4207D851008A18033AC4
:1019A00029688C4662445470C3E7164B164A682176
:1019B000164800F08BFA184B104A4221104800F0EC
:1019C00085FA002B0BD02A7B934208D843001B18C2
:1019D000033B2A689446634400229A70B3E7094B9C
:1019E000094A6821094800F071FA064B064A682145
:1019F000064800F06BFAC046B45600109457001029
:101A0000BC560010E0520010BC570010FC520010F1
:101A100010570010385700104054001070B50400E3
:101A20000A00457B2900FFF765FF6073280070BD41
:101A300070B50400002967D0437B8B420ED000298B
:101A400011D0037B99420ED84B005B18033B026810
:101A5000D0188378002B0CD1002056E00121FFF72D
:101A6000DDFF012051E0294B294A6821294800F077
:101A70002DFA002B20D0227B93421DD85A00D31878
:101A8000033B2268D2182568EB5C8B421AD0002BEE
:101A90001BD0227B934218D85A00D318033B2268EC
:101AA000D21853788B4216D0002BF0D11A4B1B4A18
:101AB0006B211B4800F00AFA144B154A682115489F
:101AC00000F004FA4378137007E0104B104A6821C5
:101AD000104800F0FBF94378537000238370437083
:101AE00001222000FFF706FF0200617B814205D042
:101AF0002000FFF74BFE6073012006E0094B074A08
:101B00007121074800F0E2F9002070BDE05200109A
:101B1000BC570010FC520010805000107C57001081
:101B2000BC5600105C570010F8B5DE4657464E46CE
:101B30004546E0B505000F0092460A9A934250D3FD
:101B40001A0E91461E020A9A00233000494601F0FF
:101B5000A9FB80466C006419A400304B9C46644489
:101B60006368834200D260602B1FDBB29B46012B6F
:101B70003DD9C0239B012343802212011A60AB0090
:101B8000274A9958002907D0506901F04DFB431CA2
:101B90005800C0180338FDD253465A0123685A40F2
:101BA000E0231A4080235B0123431A605A46012A2E
:101BB00028D980239B012343802212011A604346C7
:101BC0006360424600233000494601F06BFBAD00E4
:101BD000134B58510120F0BCBB46B246A946A04663
:101BE000F8BD104B104A3321104800F06FF9012F57
:101BF000BFD1C0239B01234303221A60A368DB07E4
:101C0000FCD5C9E72168794003220A401A60A2681E
:101C10000123BB401342FAD0CBE7C046008000400E
:101C2000E40E0020C85700103C580010DC5700108C
:101C300030B583B00C2000F00BF9FEF7ABFB0028A9
:101C40000DD0002304E099002D4A2E48885001331E
:101C5000092BF8D92A4B2C4A5A6203B030BD2B4BC2
:101C600000229A6700F0FCF8294B01221A60274BEA
:101C70005B6C012BFBD1274B03221A60234B9B6B20
:101C8000012BFBD1013300930433234A0121234864
:101C900000F04EF805230093214A0121214800F06D
:101CA00047F8214B0093002202210420FFF73CFF5C
:101CB0001E4D00952B00002201210520FFF734FF67
:101CC000104C00942300002200210720FFF72CFF76
:101CD00000942300002200210820FFF725FF0A4B73
:101CE00000932300002200210920FFF71DFF00952B
:101CF0002B00002200210620FFF716FFADE7C046AB
:101D0000E40E0020006CDC021BB7000000800040E5
:101D10003CB0004030B00040002F685900800240C5
:101D2000008C864700C00240001BB7004059730773
:101D3000F0B5C64600B504000E0017001D00374878
:101D400001F072FA8046364BFA18364B9A4239D86F
:101D50000100380001F068FA0200103A98235B0095
:101D60009A4235D86B1E062B38D8069B013B062BB2
:101D700034D83F09474537D32D04069B1A03154332
:101D80002368002B36DB284B9C4244D08022520132
:101D9000264B1A60264B1A60264B9B68110099430C
:101DA000FAD12660A060231DC02292011A4321238C
:101DB00013602368002BFCDAE5600823136080BC05
:101DC000B846F0BD1C4B1D4A11211D4800F07EF89D
:101DD0001C4B1A4A19211A4800F078F81A4B174A76
:101DE0001C21174800F072F8184B144A232114489C
:101DF00000F06CF822683F231340B342C3D1A368BC
:101E00001B051B0D8342BED1E368EE22D2021340B4
:101E1000AB42B8D1D3E780229201B9E7001BB700EB
:101E200080E84BD380F8A93200C0024000E00040B7
:101E300000F0004000C000404C5800108C590010C9
:101E4000AC580010085900102459001070590010A7
:101E500080239B000343014AD36270470080054002
:101E6000064BAA2212011A602F22DA60044B054A9F
:101E70001A60024B5B68002BFBDA7047004002409F
:101E80000060024000B0FA0000BEFDE703000A4A0D
:101E90001268002A08D0084A1068C318074A9A42F4
:101EA00006D3054A13607047034A05491160F2E7FB
:101EB00001204042F7E7C0468C0F002000000420BC
:101EC000C811002010B5FFF7DFFF000010B582B089
:101ED0000C001900002A0CD0084B002A0BD00192EC
:101EE000009323000200064801F0EAFF0120FFF7FB
:101EF000CBFF044BF1E7034AF1E7C04698590010C5
:101F0000A85900102863001070B52B4B2B4A1A609B
:101F10002B4B2C4A1A602C4B9A682A4B9343FAD1CC
:101F20002A4C01E008CC9847294B9C42FAD3FFF792
:101F30007FFE234B274A1A60234B9B68DB43DB0160
:101F4000FAD1254B40229A675A671A67DA66234C02
:101F500009E0234B234A87212348FFF7B7FF2000DE
:101F6000FEF782FC0834214B9C4209D22368002BE7
:101F7000F5D0012BEDD12000FEF783FC0834F2E709
:101F80001B4CA1681B4DC022280001F0EDFDA5608F
:101F9000EFF30583002B00D000BEFEF735FAFEF705
:101FA0004DFCFEF7BDFF144C01E008CC9847134BE5
:101FB0009C42FAD370BDC04600E00040BFCDFBFE9E
:101FC00000F00040FE7F3C0000C00040680C002094
:101FD000780C0020FFFFFF0100F00140600C0020A2
:101FE000D8590010685A0010F8590010680C0020E9
:101FF00000ED00E000000020780C0020800C0020A4
:102000000FB400B583B0084801F02AFF049B002BF1
:1020100007D005A90191180001F032FF034801F033
:102020001FFF0120FFF730FF585A001064620010B4
:10203000704710B5002802D00B684968984710BD5A
:102040000100002007E083001B185B00501C0860A3
:102050001078C01830380A681378303BDBB2092B8F
:10206000F1D97047F0B5DE4657464E464546E0B5D5
:1020700083B093461F000C9B9A460D9C0E9B99467D
:102080000F9B9B0703D0B8460F00060022E0019289
:10209000A34688464E46B9460700B44207D2551CAF
:1020A0004B4641462020B84701342A00F5E73D0061
:1020B0004F465C46019B9B46B1464646B8463700B4
:1020C0002E0007E0013C551C5346185D434639007D
:1020D000B0472A00002CF5D135003E0047460F9B43
:1020E0009B0707D4100003B0F0BCBB46B246A9461C
:1020F000A046F0BDB0464E46B9462F005D46531B84
:10210000B342EFD2541C4B4641462020B847220030
:10211000F5E7F0B5CE46474680B585B0944698467B
:102120000C9D0D9C0EAB1B789946109A119B129E2C
:10213000B7071CD4002B0CD0F7070AD54F46002F49
:1021400002D10C37374204D0013B02E030272F5533
:102150000134944201D21F2CF8D9F70707D59C42CD
:1021600005D21F2C03D830272F550134F5E7F70689
:1021700015D5770505D4002C03D0944224D09C4279
:1021800022D00F9A102A2BD00F9A102A30D00F9AF3
:10219000022A35D01F2C02D830222A5501341F2C98
:1021A00005D84A46002A31D02D222A5501340396FB
:1021B00002930194009543466246FFF753FF05B032
:1021C000C0BCB946B046F0BD621E012C06D00F9FC0
:1021D000102F01D01400D4E7023CD2E71400D0E75E
:1021E000B206D1D41F2CCFD878222A550134D1E79A
:1021F000B206CCD51F2CCAD858222A550134C9E7BB
:102200001F2CC7D860322A550134C3E7720703D5A3
:102210002B222A550134CAE73207C8D520222A5575
:102220000134C4E7F0B5DE4657464E464546E0B5B4
:1022300093B081468A46089209931CAB10CB1B7859
:102240009B461E9D219B9846002C03D1102342469D
:102250009A4390468023DB0046461E4042461A427F
:1022600012D0002C22D000260EE03033D9B2771CD9
:102270000AAB99552900200000F0D6FFAC4216D3D6
:102280001F2F14D83E0004002900200000F0CCFFCE
:10229000CBB2092BE9D94246920605D54121C9188E
:1022A000C9B20A39C9B2E2E76121F8E7270043461B
:1022B0000693209B05931F9B049303955B46029313
:1022C00001970AAB0093099B089A51464846FFF7CD
:1022D00020FF13B0F0BCBB46B246A946A046F0BDF5
:1022E000F0B5DE4657464E464546E0B595B00890F7
:1022F00009910A920B931E9E1F9C20AB1B789B4654
:10230000229B9946239D269B9A463300234303D163
:10231000103352469A4392468023DB0057461F40B3
:1023200052461A4219D0330023432DD0002714E01F
:102330003033DAB27B1C98460CABDA554A462B0098
:102340003000210000F0AEFFA5421FD819D043464F
:102350001F2B1BD8474606000C004A462B003000B6
:10236000210000F09FFFD3B2092BE1D9524692061B
:1023700005D54122D218D2B20A3AD2B2DAE76122A6
:10238000F8E7B145E3D901E00023984653460693A8
:10239000259B0593249B04934B4603935B46029332
:1023A000434601930CAB00930B9B0A9A099908983A
:1023B000FFF7AFFE15B0F0BCBB46B246A946A0463B
:1023C000F0BD0000F0B5DE4657464E464546E0B546
:1023D00091B083468A460C9298461A9C08941B9D9D
:1023E000099522002B002000290001F0D6F90028D1
:1023F00000D0E5E001225242D74B2000290001F035
:10240000C7F9002800D0DBE001225242D34B200064
:10241000290001F0A7F9002800D0D1E00022002314
:10242000089E3000099D290001F09CF9002800D089
:10243000DDE008980999069007918023DB001E9A39
:102440001A400D921E9A1A4201D106231C93069837
:10245000079904000D000A000600024300D1D1E0F4
:10246000080D4005400DBE4CA44660440A03120B03
:10247000BC4B13431F0001F0A3F9BB4ABB4B01F057
:1024800032F9BB4ABB4B01F00FF904000D000022EA
:10249000B94B3000390001F002F9B84AB84B01F0ED
:1024A00022F902000B002000290001F0FDF801F0E4
:1024B0009FF9814601F084F904000D00B14AB24B46
:1024C00001F011F90022B14B01F0EEF801F090F9A2
:1024D0000600AF4AAF4B2000290001F004F90400C8
:1024E0000D00300001F06CF9AB4AAC4B01F0FBF889
:1024F00002000B002000290001F0D1F804000D00BB
:1025000002000B0001F0EFF80A900B91A44BF318B6
:1025100000261F0522002B002000290001F0C4F82E
:102520000E900F9122002B0000208021C90501F0A0
:10253000B6F804000D0000229A4B0A980B9901F09E
:10254000B8F80022984B01F0AFF802000B000A988F
:102550000B9901F0AEF80022944B01F0A5F80200AF
:102560000B000A980B9901F0A4F802000B00200060
:10257000290001F099F802000B000E980F9901F064
:1025800098F80022774B01F08FF832003B0001F001
:10259000AAF806000F0004000D00069A079B01F040
:1025A000F7F8002830D001235B429C46E14400222A
:1025B0007D4B3000390001F07CF804000D0023E071
:1025C0001E9B04931D9B03931C9B0293089A099BDB
:1025D0000092019343460C9A5146584600F0FCF88D
:1025E00011B0F0BCBB46B246A946A046F0BD0023E0
:1025F000002406930794069680231B069C46654498
:1026000007951AE7002399464B466333C62B1ED81D
:1026100004261E9B1B0526D52B0023430FD0644A9E
:10262000644B0698079901F0ABF8002879D0002296
:10263000614B0698079901F095F8002871D01C9B12
:102640004B4506DD4A46981A431E1C9303E00526B7
:10265000DFE700231C938023DB001E9A1A431E929F
:102660000026002399461D9B9E4264D29F1B022395
:102670001E9A1A400A921E9A134202D0002E00D0CF
:1026800000274B46002B07D022002B000698079905
:1026900001F00FF80690079100220023089809998D
:1026A00001F060F8002848D1444B1E9A134004936F
:1026B00003971C9B0293069B079C0093019443463F
:1026C0000C9A5146584600F087F8002E00D187E753
:1026D0001E9B9B063DD54525441C434602005146A2
:1026E0002800D8474B46DA179B185340052205921D
:1026F000013E0496002203920A3202924A46D00F0B
:10270000019000934346220051465846FFF78AFD48
:102710000A9B002B00D163E702005F460C9E1D9DC3
:1027200054E01C9B002B9ED00D9B002B9BD01C9B30
:10273000013B1C9397E7002799E7069C079D220021
:10274000290080200006844661440B00069207930E
:10275000AAE76525C0E7C046FFFFEF7FFFFFEFFF59
:1027600001FCFFFF0000F03FFB799F501344D33F73
:10277000B3C8608B288AC63F0000F83F61436F638F
:10278000A787D23F71A379094F930A400000E03F29
:102790001655B5BBB16B0240EF39FAFE422EE63F4B
:1027A000FF03000000002C400000244000001840FF
:1027B0002D431CEBE2361A3F80842E41FFF7FFFFCA
:1027C000541C434651462020B8472200931BAB427D
:1027D000F6D3100004E7C046F0B5DE4657464E4635
:1027E0004546E0B595B00690079193469946209FDF
:1027F0001E9A1F9B1000190000F0CFFF002831D156
:1028000001225242BF4B1E981F9900F0ABFF0028D7
:1028100037D101225242BC4B1E981F9900F0B8FFDD
:1028200000283DD10022B94B1E981F9900F0B0FF3F
:10283000002850D10022B64B1E981F9900F092FF3D
:10284000002848D1002200231E981F9900F08AFF1B
:10285000002850D100239846229B5B0500D4B6E0A7
:10286000002458E0229B0393219B029303230193AE
:10287000A84B00934B465A4607990698FFF7F2FB80
:102880000EE1229B0393219B029304230193A24B0D
:1028900000934B465A4607990698FFF7E3FBFFE083
:1028A0000423229A1A4022990B4210D09B4B002AF3
:1028B0000FD0042222990391219902910192009351
:1028C0004B465A4607990698FFF7CCFBE8E0944B35
:1028D000EDE70322EEE7229B0493219B03930297EB
:1028E0001E9B1F9C009301944B465A4607990698DD
:1028F000FFF768FDD4E01E9A1F9B0020002100F026
:10290000CEFE1E901F9101239846A5E70CAB302206
:102910001A55013F01341F2C01D8092FF6D81E98F3
:102920001F9900F065FF050000F04AFF02000B0050
:102930001E981F9900F0B3FEFA007A4B9B181A6894
:102940005B680A920B9300F0CEFE0890099100F0AC
:1029500073FF060000F030FF02000B000898099991
:1029600000F09DFE0890099100226F4B00F010FFCF
:1029700000282ED00136300000F01EFF02000B00B0
:102980000A980B9900F0F4FE002801D001350026CA
:10299000002F2CD1280000F013FF02000B001E981E
:1029A0001F9900F07CFE06000F0000225E4B00F035
:1029B000D9FE002846D100225B4B3000390000F0E0
:1029C000E7FE00283ED1EB073CD501353AE006276B
:1029D00046E70022544B0898099900F0C3FE0028EE
:1029E000D6D1002E01D0F307D2D50136D0E7AA46C2
:1029F0001F2C11D8013F0A21300000F015FC651C86
:102A000030310CAB19550A21300000F00DFC092EB5
:102A10000ED906002C00EBE755461F2C0CD87B1E68
:102A2000002F09D00CAA302111551F000134F4E702
:102A30002B0055461C00F0E71F2C03D80CAB2E22B0
:102A40001A5501341F2C10D80A21280000F0C4FBAD
:102A5000661C30310CAB19550A21280000F0BCFB74
:102A6000051E01D03400EDE734000323229A134001
:102A7000012B1CD01F2C06D84346002B32D00CABA8
:102A80002D221A550134229B0393219B029301941A
:102A90000CAB00934B465A4607990698FFF7E2FAAB
:102AA00015B0F0BCBB46B246A946A046F0BD219B7E
:102AB000002B13D04346002B02D10C3313420FD00E
:102AC000219B013B2193190003E00CAB30221A55E6
:102AD00001348C42CED21F2CF7D9CBE72199F8E7ED
:102AE0002199F6E7229B5B0704D50CAB2B221A55E4
:102AF0000134C8E7229B1B07C5D50CAB20221A5511
:102B00000134C0E7FFFFEFFFFFFFEF7F65CDCD4151
:102B100065CDCDC1845A0010885A00107C5A00102F
:102B2000785A0010705C00100000E03FF0B5DE46FF
:102B300057464E464546E0B593B082468B46904692
:102B40001193002900D1EBE200275546119B18781C
:102B5000002800D1E7E2252809D07C1C43463A0032
:102B60005946A847119B013311932700EEE7013323
:102B700011930024119A11780B00203BD8B2102831
:102B800003D88300D048C3589F460B00303BDBB2CC
:102B9000092B2CD92A292FD000230A93119B1A78AC
:102BA0002E2A39D000239A46119A1378683BD9B25D
:102BB000122976D88B00C549CB589F4601231C4368
:102BC00001321192D6E702231C4301321192D1E760
:102BD00004231C4301321192CCE708231C43013229
:102BE0001192C7E710231C4301321192C2E711A8CA
:102BF000FFF726FA0A90D1E71C9B1A1D1C92186851
:102C0000002804DB0A90119B01331193C6E70223CD
:102C10001C4343420A93F6E78022D20014435A1C15
:102C200011925A781300303BDBB2092B04D92A2ABF
:102C300007D000239A46B7E711A8FFF701FA8246AA
:102C4000B2E71C9B1A1D1C921868002804DB824600
:102C5000119B01331193A7E70020F8E780235B0065
:102C60002343511C119152786C2A01D01C0018E0AA
:102C7000C0239B001C430131119112E080232343A8
:102C8000511C11915278682A01D01C0009E0C02320
:102C90001C430131119104E080235B001C4301328D
:102CA0001192119B18780300253BDAB2532A00D900
:102CB0002CE29300864AD3589F4680239B001C43F6
:102CC00001321192EDE780235B001C430132119227
:102CD000E7E7782809D0582838D06F2838D06228FC
:102CE00038D010239C430A2600E01026582833D001
:102CF000692803D0642801D00C229443630501D5D0
:102D00000122944369282AD0642828D0A30500D53D
:102D10009FE0E30500D5B8E0630600D4CAE01C9A42
:102D2000111D1C911168FF220A4005940A9B04930F
:102D300053460393029600230193009243463A00C0
:102D400059462800FFF76EFA070027E01026CDE766
:102D50000826CBE70226C9E720221443C8E7A305CB
:102D600020D4E30550D4630666D51C9A111D1C912E
:102D70001168FF220A40D317D118594005940A9BC5
:102D80000493534603930296D20F01920091434657
:102D90003A0059462800FFF745FA0700119B013316
:102DA0001193D3E61C9BDA1D07218A4311000831D9
:102DB0001C91116853689C46DB170C930D930C9A79
:102DC0000D9B100048400E90624653400F930E98A2
:102DD0000F990C9A0D9B801A99410E900F910894AF
:102DE0000A9B079353460693049600230593634674
:102DF000DA0F02920090019143463A0059462800AA
:102E0000FFF76EFA0700C9E71C9A111D1C911268A2
:102E1000D317D118594005940A9B04935346039342
:102E20000296D20F0192009143463A00594628007B
:102E3000FFF7F8F90700B1E7230605D51C9A111D25
:102E40001C910023D25E96E71C9A111D1C911268FA
:102E500091E71C9BDA1D07218A43110008311C9160
:102E600008940A9B07935346069304960023059300
:102E70000293136854680093019443463A005946FC
:102E80002800FFF72DFA070088E71C9A111D1C91F6
:102E900005940A9B049353460393029600230193DF
:102EA0001368009343463A0059462800FFF7BAF9E1
:102EB000070073E723060DD51C9A111D1C9112689B
:102EC0001204120C31E7C046905A0010D45A001078
:102ED000205B00101C9A111D1C91126825E74628E2
:102EE0001AD01C9B0733072293431A0008321C9206
:102EF00004940A9A0392524602925C681B680093FB
:102F0000019443463A0059462800FFF765FC070044
:102F1000119B0133119319E620231C43E1E7672835
:102F200001D0472802D180231B011C43452801D032
:102F3000472801D120231C431C9B073307229343BE
:102F40001A0008321C9204940A9A03925246029282
:102F50005C681B680093019443463A005946280078
:102F6000FFF730FA0700119B01331193EEE50223BE
:102F70001A002240924623421FD001241C9B1A1D96
:102F80001C927A1C9146187843463A005946A84745
:102F90005346002B16D1119B013311934F46D5E5B3
:102FA000561C434659462020B847230032005C1C7B
:102FB0009D42F5D83D001700E0E701233A002F00BD
:102FC0000A9DF4E74A46A9460A9D06E0571C434677
:102FD00059462020C84734003A00661CA542F5D85F
:102FE0004D469146D7E71C9B1A1D1C921B689946BB
:102FF0005346002B00D1013B4E4601E00136130041
:103000003278002A02D05A1E002BF7D14B46F21A12
:1030100010928023DB0026001E401C4203D0524544
:1030200001D95346109302231A0022400B922342E7
:1030300005D03A0037004C46A946554620E03A00F4
:10304000109B5F46B3462E0006E0551C43463900F0
:103050002020B04723002A005C1C0A999942F4D82A
:1030600035005E46BB46109437004C46A94655468F
:1030700006E01D000134561C43465946C84732003D
:103080002078002804D0002FF4D06B1E002DF0D142
:1030900017004D460B9B002B03D1119B013311935D
:1030A00054E50A9F109B06E0561C434659462020D3
:1030B000A847230032005C1C9F42F5D81700ECE7BC
:1030C00021231C431C9B1A1D1C921B680093059412
:1030D0000823049353460393102302930023019380
:1030E00043463A0059462800FFF79CF80700119B19
:1030F000013311932AE57C1C43463A0059462520AA
:10310000A847119B0133119327001FE57C1C434600
:103110003A005946A847119B01331193270015E542
:103120000A4B9A4610E5AA46474502D343465A1E23
:1031300000E03A00434659460020D047380013B01B
:10314000F0BCBB46B246A946A046F0BD31200010F7
:1031500000B585B0029003910121009313004A420B
:1031600002A90248FFF7E2FC05B000BD33200010C1
:1031700001480421014B184700040020A131001030
:1031800010B5010018231B8814221088984710BD21
:1031900010B5010018231B8816221088984710BD0F
:1031A000F0B5C64600B507000E000025012398467D
:1031B00000E00135B5420AD2AC003C192068FFF7A7
:1031C000DFFF20600028F4D100239846F1E7404655
:1031D00080BCB846F0BD0000124A936F9B0815D220
:1031E0009066D166002905D0FFE7FFE7FFE7516F42
:1031F000106F704704B580210906C217514000289E
:1032000000D0C84301F01CFE002104BDF0B5146ECF
:10321000556E576F166FFFF7E3FF146655665767D5
:103220001667F0BD000000D0114A936F9B0813D2BF
:1032300010665166002905D0FFE7FFE7FFE7516FF1
:10324000106F704704B5002801D00020C04301F082
:10325000F7FD002104BDC046F0B5146E556E576FE2
:10326000166FFFF7E5FF1466556657671667F0BDE2
:10327000000000D094464A4A926F9208624601D2FA
:1032800028E0C046F0B5464E346E756E776F366FE7
:1032900000F020F89446424A146655665767166750
:1032A0006246F0BD94463E4A926F9208624601D251
:1032B00054E0C046F0B53A4E346E756E776F366F97
:1032C00000F04CF89446364A146655665767166700
:1032D0006246F0BD002B24DB11D000293EDA00B598
:1032E000C943404200D1013100F038F8C94340429F
:1032F00000D10131DB43524200D1013300BD002A2D
:10330000EBD1002801D1002905D00020C90FC90741
:1033100001D1C043410800B501F08AFD002200231D
:1033200000BD00B500290ADBDB43524200D1013366
:1033300000F014F8C943404200D1013100BDC94337
:10334000404200D10131DB43524200D1013300F051
:1033500005F8DB43524200D1013300BD002923D1DF
:10336000002B18D1002A0CD0BC460D4F38667A6667
:1033700000210023FFE7FFE7FFE77A6F386F67461A
:103380007047002801D00748010000B501F050FD4A
:103390000022002300BD02000B0000200021704726
:1033A000000000D0FFFFFFFF002B00D0BFE0130C98
:1033B00028D1002AE7D080B4114F39667A66FFE73A
:1033C000FFE730B4040C7B6F396F1B0423433B666B
:1033D0007A66FFE7FFE7FFE7C04684B27B6F3D6F89
:1033E0001B0423433B667A66FFE7FFE7C0460023E2
:1033F0002C042D0C7A6F386F00196941B0BC7047EE
:10340000000000D0F0B594460025140E01D1120240
:103410000835140F01D112010435940F01D1920027
:103420000235D40F01D152000135D40B0134254FA0
:103430007C66254C3C660E0C93B2FFE7FFE7FFE786
:103440003C6F6643360C7703BE467343DF0B5B0469
:10345000C01AB941130C7343DB18C91ACE0866436E
:10346000360CB64493B273431F0F1B01C01AB94107
:10347000130C73431F0B1B05C01AB941860D8F0235
:103480003E436643360C092D24DB520A7243801AF0
:103490007703460A6643360C16235B1BDE40DF408B
:1034A000BF1964466643821B70460435063301002B
:1034B000D940A840C01900D30131A24206D200234E
:1034C000F0BD0000000000D0FFFFFFFF121B013025
:1034D000F3D3F1E709277F1BFE406446A2B2724393
:1034E000801A00D20139220C7243130C1204821A82
:1034F00099410B007046043513370100F940A8408C
:10350000801900D30131002B02D1A2420AD2F0BDB2
:10351000013000D30131121BFAD2013BF8D1A24293
:1035200000D2F0BD013000D30131121BF7E7F0B536
:103530001C0C00D080E00CB400251C0A04D11B0236
:10354000160E3343120208351C0B04D11B01160F53
:103550003343120104359C0B04D19B00960F334377
:1035600092000235DC0B02D192185B4101351C0040
:10357000971864410134464F7C66464C3C660E0CFD
:10358000FFE7FFE7FFE7C0463C6F6643360C770373
:10359000BE4697B27743C01B00D20139C01B00D290
:1035A00001399FB27743C91BC91B170C77437E04AF
:1035B000FF0B801BB941CE086643360C0C2D33DB64
:1035C000B644120B1F053A431B0B97B27743C01B3F
:1035D00000D201399FB27743C91B170C77433E04D1
:1035E0003F0C801BB941860D8F023E43664329275D
:1035F0007F1BFE400C3D7746AF40BF1930BCA2B2E6
:10360000ABB272437343801A9941220C7243130C7C
:103610001204801A994102000B000137001BA941D6
:10362000F9D2781E0021F0BD0C277F1BFE407746A3
:103630007F0BAF40FF19E0E700245D1C07D0144F5B
:103640007D663966FFE7FFE7FFE7FFE73C6F95B26E
:103650009EB265436643401BB141150C1E0C654389
:10366000664336042F0C3E432D04401BB141994262
:1036700004D202000B0020000021F0BD01D19042D5
:10368000F7D3801A994101349942F2D3F6E700004A
:10369000000000D0FFFFFFFF48404140484018B401
:1036A000134B5B68019308BD18B4114B1B68019361
:1036B00008BD94460F4A926F920805D2624618B42C
:1036C0000B4BDB68019308BD0A4AF0B5146E556ECA
:1036D000576F166F6246FFF7F2FF064A146655668B
:1036E00057671667F0BD18B4014B9B68019308BD7E
:1036F000AC0F0020000000D0FFB5504042405040C9
:1037000059404B40594000E0FFB5154F4C00640D47
:1037100003D0BC4204D10C0314D80020090D0905C4
:103720005C00640D03D0BC4204D11C030AD8002203
:103730001B0D1B0501264B4009D44B4003D58B4282
:1037400000D18242FFBD9942FCD19042FFBD0B43A4
:10375000DB1803431343F5D0C9434918FFBD0000EC
:10376000FF07000000B5FFF7CFFF804100BDC04656
:1037700000B5FFF7C9FF01D9002000BD012000BD41
:1037800000B5FFF7B9FF01D9002000BD012000BD41
:1037900000B5FFF7B1FF804100BD012040054A00A0
:1037A000121804D85A00121801D8002070470120BE
:1037B00070470020704700000021002805D17047A5
:1037C000C1174840401AFAD0C90713B5064B1B6809
:1037D00098470CBC441CA2401005120B0349091B5E
:1037E00009051943114310BDAC1000201F0400004F
:1037F00010B54C00620D8023D218DB00D21A5B0595
:103800007E2A10DD9E3A13DACC17090349081943C2
:103810005242D140640001341532202A05DAD040EA
:103820000843604310BD002010BD0846604310BD32
:10383000C80FC018013810BD18B4024B5B6A019361
:1038400008BD0000AC0F002018B4024BDB6D0193E3
:1038500008BD0000AC0F002018B4024BDB6F0193D1
:1038600008BD0000AC0F002010B50148FEF7C8FBF2
:10387000C05C001070B513231C78012C14D0012CEF
:1038800014DC022C02DC1F4A1F4B9A641F48FFF70E
:1038900077FC1F4B186070BD99001E481A4A88506B
:1038A00001331F2BF8D9EAE70023FAE71A48FFF79C
:1038B0006FFC05001948FFF76BFC023803789B008A
:1038C0007F2B19DD802229000F4800F04DF9022CD2
:1038D000D7D1134B1A88B5231B029A4209D1114B39
:1038E0001A88114B9A4204D1104B1A88104B9A42F5
:1038F000C7D00020FEF784FB0E4B0F4A32210F4841
:10390000FEF7E4FA41390010AC0F00204C33000000
:10391000AC100020693800105344000053460000EA
:1039200054380000D8380000494600009C38000098
:1039300059460000D85C0010905D00102C5D00100E
:1039400007B56046002800D100BE01880A0A02308F
:10395000DF2AFAD1C9B2820804D302884088000461
:10396000104300E00068024A5050039007BD000079
:10397000AC0F002051434343C9188C46110C83B24D
:103980004B4310B4040C614392B280B25043624383
:103990001C041B0C001910BC59411304120CC01854
:1039A00051416144704700004840414048400E4B3F
:1039B0005B6818470C4B1B6818470C4A936F9B08B1
:1039C00002D2094BDB681847F0B5146E556E576F7D
:1039D000166FFFF7F6FF054A1466556657671667B8
:1039E000F0BD014B9B681847B0100020000000D0CC
:1039F00007B548404140484001E0C04607B5420095
:103A0000120E03D0FF2A03D1420218D8C00DC00500
:103A10004A00120E03D0FF2A03D14A020FD8C90D63
:103A2000C9050122414005D4414001D5814207BD6D
:103A3000884207BD0143491801D0C043001807BDA3
:103A400000B5FFF7DBFF01D0002000BD012000BD65
:103A500000B5FFF7D3FF804100BDC04600B5FFF7BA
:103A6000C7FF804100BD0000C10FC90700D540421B
:103A7000002817D0F44603B40B4B1B68984706BCCC
:103A800081409E384042803107D20B0607D0490062
:103A9000490AC0051043084360470130F8E7490A66
:103AA0008902F5E770470000AC100020014BDB6F86
:103AB00018470000B010002010B50148FEF7A0FA2A
:103AC0002863001070B513231E781848FFF760FBB9
:103AD0000500012E11D0012E09DDAB1E1B789B00C5
:103AE0007F2B1DDD80222900114800F03DF8114890
:103AF000FFF746FB104B186070BD542201000C48C4
:103B000000F032F8002300E001331F2BE3D89A00C5
:103B1000074C1259002AF7D19A0008481051F3E7D0
:103B2000074B084A42210848FEF7D0F953460000E7
:103B3000B01000204C330000AC100020B93A001047
:103B4000A45D00103C5E0010D85D00100148042107
:103B5000014B184710040020A1310010014B1B68D5
:103B60001847000010040020014B5B681847000054
:103B70001004002010B50300080011001B689847CE
:103B800010BD0000F8B507000D001600437D002BA6
:103B900002D0002400200CE00368110028009847A0
:103BA0002DE03B7D10E0022115483B689847601CE2
:103BB0000134B44214DA002CF3DD2B19013B1B78DD
:103BC0000D3B5A425341DBB22A5D0A2AF0D1002B49
:103BD000EED1A042E7DA211A28183B689847E2E7BD
:103BE000B04203DA311A28183B689847002E06DDE8
:103BF000AD19013D2B780D3B5A4253413B75F8BD41
:103C0000C85E001070B505000368002B16D00C4B81
:103C10001C6805E0290004C92000FFF7B3FF2469F0
:103C2000002C09D02368002BF9D0064B1B68002B11
:103C3000F0D0A342F3D1EDE700232B6070BDC04666
:103C4000800F0020880F002070B505000C000B6865
:103C5000802B05D021684B1C23606418257170BD32
:103C60000800FFF7CFFFF5E7F0B583B007000E00BF
:103C70000092019328E0A368002B04D031003800A3
:103C80009847002827DC2469002C06D0134B1D68B8
:103C9000002DF0D0A542F6D1EDE70099019A104B26
:103CA0005B6A9A4209D80E48806A88420FD29A42CB
:103CB00001D0012302E0002300E00023002B08D103
:103CC00001200021FDF710FC064B1C68DCE70123F6
:103CD000F4E70120404203B0F0BDC046880F002049
:103CE00000400540800F002010B5FDF7DDFB02000D
:103CF0000B1E0BDB0D48002112184B41002B0BDB78
:103D0000002B0DDB0A4801F0A3F810BD094B0A4A4D
:103D10003F210A48FEF7DAF801225242084BEFE74A
:103D2000044B054A3F210548FEF7D0F840420F00FA
:103D3000600C002078510010B05E0010945100100B
:103D4000FFFFFF7F10B5024801F06AF810BDC046C2
:103D5000600C0020F0B5CE46474680B583B0060023
:103D60000D0090461C00FFF7BFFF81466B1C05D07D
:103D7000002C08D0194F1A4B1C6807E0300000F0E7
:103D80005BFF0500F4E7174FF5E72469002C17D017
:103D90002368002BF9D0144B1B68002B01D0A342E1
:103DA000F3D12A0031002000B8474346002BECD065
:103DB0006B46D91D0A230B7001222000B847E4E7A7
:103DC0004B46002B07D16B1E9D41E8B203B0C0BC2F
:103DD000B946B046F0BDFFF7B5FFF4E7753B0010FC
:103DE000800F0020853B0010880F002010B50300D5
:103DF00008001100002B05D1044B1A685B68FFF71F
:103E000033FF10BD01204042FBE7C046D0550010F3
:103E100010B5030008001400013B012B06D8002355
:103E200000222100FFF796FF200010BD0120404234
:103E3000FBE70120404270470120404270470000EC
:103E400010B5064B1C6801E098472469002C03D08C
:103E50006368002BF8D1F8E710BDC046800F002042
:103E600070B5050000F0E8FE040000230122010007
:103E70002800FFF76FFFFFF7E3FF200070BD000091
:103E800070B5A2B004000E00FFF72EFF050000235E
:103E900001933300220001A90848FFF759F90400F3
:103EA00001A8FFF7AFFEFFF7CBFF002D02D12000E6
:103EB00022B070BDFFF746FFF9E7C046493C00104D
:103EC0000FB400B583B004A901C90191FFF7D8FF71
:103ED00003B008BC04B0184710B5024800F004F85D
:103EE00010BDC046A40F002070B588B0040004AD1A
:103EF000002604960922002105A8FFF72FFE009650
:103F00000922002101A8FFF729FE4B232B700D2267
:103F10006946280000F07CFF002304E05A1D694632
:103F20008A5CE2540133072BF8DD08B070BD000055
:103F300010B50400FDF7B8FA002903DB20606160CA
:103F4000200010BD024B034A3F210348FDF7BEFF8E
:103F500078510010C06500109451001010B51A205F
:103F6000FCF70CFAD02424068023DB04A36214207F
:103F7000FCF704FA80235B03A362002201211420D2
:103F8000FCF7E2F910BD000070B5002400250AE03E
:103F9000D0231B065A68920E01231340ED1801200E
:103FA000FDF7CEF90134092CF2DD2800FFF75CFDA6
:103FB0000649FFF702FD0124FC218905FFF74EFDAC
:103FC000002800D10024200070BDC0460000204120
:103FD000F0B5CE46474680B583B00600884600233C
:103FE000994620E0013543464A469B1A013BAB42C5
:103FF00016DDEF00F7196C1CE400341921683868ED
:10400000FFF726FD0028EDD0EC466246390009C9CD
:1040100009C222000ACA0AC7634606CB06C4E1E702
:1040200001239C46E1444346013B4B4501DD00250D
:10403000D9E703B0C0BCB946B046F0BD01000023CB
:10404000002000E00133082B04DCCA5C312AF9D1DE
:104050000130F7E770470000F0B593B00600482242
:1040600001006846FFF780FD09216846FFF7B0FFB1
:10407000009F381CFFF71AFD04000D000298FFF79F
:1040800015FD00220F4BFFF72EFB02000B00200056
:104090002900FFF77DFB002803D113B0F0BD0134E8
:1040A00000E00024082C0ADCE300F158381CFFF77C
:1040B000C7FC0028F3D0002CF1D10120EDE700204F
:1040C000EBE7C0460000144070B5050000242A2C20
:1040D00014D8A100091949000919094BC918280069
:1040E00000F066FD002801D00134F0E7A3001B19A1
:1040F0005B001C19024B1C19A07A70BD3F20FCE725
:10410000E463001010B50B4B1B68302B0DDC2A2824
:1041100000D110BD5A1C07490A600749C854002342
:104120008B540648FFF7CCFEF3E70548FFF798FEEF
:10413000EFE7C046900F00200C0F002054600010E5
:104140007460001010B50023034A1360034A137013
:104150000348FFF785FE10BD900F00200C0F0020D4
:10416000B0600010F0B597B005000F0048220100C4
:1041700001A8FFF7F9FC092101A8FFF729FF05981D
:10418000FFF794FC374A384BFFF789FAFFF764FBD7
:10419000061C002403E0302213AB1A550134082C0E
:1041A00008DCE300E858311CFFF758FC0028F2D087
:1041B0003122F1E713A800234372FFF73FFF050008
:1041C00039002A48FFF77CFE301CFFF76FFC020025
:1041D0000B002748FFF774FE2648FFF771FE002406
:1041E0000AE0E20001ABD058FFF760FC02000B00D0
:1041F0002148FFF765FE0134082CF2DD13A91F48A2
:10420000FFF75EFE29001E48FFF75AFE032D0FD070
:1042100003211C48FFF754FE1B48FFF721FE022D27
:1042200019DC1A48FFF71CFE1948FFF719FE0DE0CC
:104230001848FFF715FE13A8FFF746FF040001001A
:104240001548FFF73DFE2000FFF75CFF1348FFF71E
:1042500007FE17B0F0BD1248FFF702FE1148FFF746
:10426000FFFDF3E79A9999999999B93FC8600010B1
:10427000E86000101061001028610010306100102B
:104280004061001088610010BC610010D061001016
:10429000F061001058610010706100104C62001055
:1042A0001862001038620010F0B5DE4657464E46E0
:1042B0004546E0B5ADB0FFF767FE060004A8FFF77E
:1042C00037FE049B059C029303946548FFF7C8FDE5
:1042D000644C2368986800F0B9F96348FFF7C0FDA3
:1042E0002368986800F0B2F96048FFF7B9FD2368C9
:1042F000986800F0ABF900239A4699469846002545
:1043000018E05B48FFF7ACFD564C2368986800F056
:104310009DF95848FFF7A4FD2368986800F096F9C6
:10432000FFF710FFC820FDF70BF800239A469946C7
:1043300098460025D0231B065B68DB02E1D5FFF71A
:1043400023FE0400864203D16420FCF7F9FFF1E765
:10435000FDF7AAF806000F1E2DDB029A039B801AB8
:104360009941FFF771FA0022434BFFF7A2F9FFF7DB
:1043700073FA5346002B01D0012C22D04B46002B60
:1043800042D11AABEA00D0509B185C60002C1ED0C2
:104390003A4B9B46FFF78AFB009001915B462A004F
:1043A00041463748FFF78CFD0135082D12DC029697
:1043B00003972600C8E7334B334A3F213348FDF7C4
:1043C00085FD3348FFF74CFD00239A46EFE7314B5C
:1043D0009B46DFE71AA8FFF73FFE051E0AD02E48CE
:1043E000FFF73EFD48221AA906A8FFF7BDFBA94624
:1043F0000925DCE741461AA8FFF7B4FE01239C46D5
:10440000E0449A460025D2E718901994002C0AD06F
:104410001A4DFFF74BFB02000B0029001F48FFF766
:104420004FFD00200EE01B4DF3E7451CC000E900E6
:104430001AAB9C46604406AB9C4661440822FFF7D9
:1044400093FB28000828F0DD41461AA8FFF78AFEF2
:1044500001239C46E044CA46002399460025A6E76E
:10446000786200102004002094620010B0620010F6
:10447000E0620010FC62001000408F40706200108B
:104480005463001078510010C06500109451001062
:104490002C6300106862001080630010C463001079
:1044A000F0B5C6460C0000B5A28980460C23C95E53
:1044B00013074CD4802362681B010B43A381002A9D
:1044C00066DDA66A002E3ED04246414615680022AF
:1044D0000A609AB2DB0460D4012300224046E169FD
:1044E000B047431C68D0A289A66A530706D5636803
:1044F000C01A236B002B01D0E36BC01A002302000B
:10450000E1694046B047431C49D143461B68002B34
:1045100045D01D2B01D0162B57D1A3892F4A13400C
:10452000A38100236360236923604346216B1D60E0
:10453000002908D023004033994202D0404600F0C1
:10454000B7F900232363002080BCB846F0BD26697C
:10455000002EF8D0236826609D1B0023920700D10F
:104560006369A360002D04DCEDE736182D1A002DD9
:10457000E9DD2B0032004046E169676AB847002850
:10458000F3DC40220120A38940421343A381DBE7EF
:10459000E26B002A00DD94E7D5E7206DA5E7A3894B
:1045A0000E4A13400022626022691BB2A38122607E
:1045B000DB04BAD52065B8E743461B68002B00D161
:1045C00091E71D2B06D0162B04D04022A38913435C
:1045D000A381B9E7434600201D60B5E7FFF7FFFF61
:1045E00070B505000C00002802D0836B002B15D09D
:1045F0000C22A35E002B17D0626ED20701D49B055C
:1046000014D528002100FFF74BFF636E0500DB0780
:1046100002D4A3899B0515D5280070BD00F05AF877
:104620000C22A35E002BE7D10025F5E7A06D00F07A
:1046300049FA28002100FFF733FF636E0500DB070E
:10464000EAD4E6E7A06D00F03FFAE5E770B5041E96
:104650002AD0194B1D68002D02D0AB6B002B17D050
:104660000C22A35E002B11D0626ED20701D49B05F1
:1046700012D528002100FFF713FF636E0500DB074A
:1046800002D4A3899B050BD5280070BD0025FBE74C
:10469000280000F01FF8E3E7A06D00F013FAE8E748
:1046A000A06D00F011FAEFE7044B0549186800F01F
:1046B000E1F90500E8E7C04620040020D8650010B5
:1046C000E145001010B5024900F0D4F910BDC04614
:1046D000E14C0010F8B5DE4657464E464546E0B57B
:1046E00006003C4F380000F0EDF9B46B002C68D1A7
:1046F000394B0322F363B8239B00F45004337568ED
:10470000F2500833F218043BF25028000423082228
:104710000021EB606C662C606C60AC602C616C619D
:10472000AC615C30FFF71AFA28002C4BED619B4618
:104730002B622B4B58309A466B622A4B9946AB62E0
:10474000294BEB62984600F0B9F9B568274B280071
:1047500008220021EB606C662C606C60AC602C6100
:104760006C61AC615C30FFF7F9F95B462B62534634
:104770006B624B462800AB624346ED61EB625830FA
:1047800000F09CF9F5681A4B280008220021EB6024
:104790006C662C606C60AC602C616C61AC615C30F0
:1047A000FFF7DCF95B462B6253466B624B462800F1
:1047B000AB624346ED61EB62583000F07FF90123B4
:1047C000B363380000F080F9F0BCBB46B246A9469E
:1047D000A046F8BDA40D0020C5460010114B0010E6
:1047E000394B0010794B0010A54B00100900010057
:1047F0001200020010B5024800F064F910BDC04676
:10480000A00D002010B5024800F05EF910BDC046B2
:10481000A00D0020F8B50C00050000F057F9204F5E
:10482000BB685E6803239E431E4B341B9C46644456
:10483000240B013C113324039C4207DB0021280098
:1048400000F054F9BB689B19984204D0280000F08E
:1048500045F90020F8BD2800614200F047F9431CEB
:104860000DD00122BB68361B16435E600E4B28003C
:104870001A68141B1C6000F031F90120EAE70021DE
:10488000280000F033F9BA68831A0F2BDEDD0749E0
:104890000968401A0449086001210B435360D5E7B9
:1048A00050080020EF0F0000A80D0020580C002039
:1048B000F0B5C64605000C0000B500294FD000F049
:1048C00005F9210008394C68012622000320B24373
:1048D0008F187B688343624898468368BB426AD0DE
:1048E00043467B6026421ED108239C460C688444C4
:1048F000091B12198C6864454FD0CB68E3609C603B
:104900004346FC186468344211D1BB68554C42449C
:10491000A34200D17EE0FC68DC60A3600123134366
:104920004B608A5006E0FC1864683442EDD01643B0
:104930004E603A6080239B009A4213D25409D308F8
:104940000122A2404468DB002243426018188368B9
:10495000C8608B608160D960280000F0BFF880BC1F
:10496000B846F0BD530A042B3ED8940926003934CA
:104970003836E40004192368083C03279C4242D0DF
:104980005868B843904202D99B689C42F8D1DC68D1
:10499000CC608B60A160D960DEE74346F8184068C0
:1049A000304257D1FB68B86842441643C3609860F0
:1049B0004E608A50D0E713004344264206D10A686D
:1049C000891A8C689B18CA68E260946001221A43B5
:1049D0004A60254A816012689A42BDD8234B28005C
:1049E0001968FFF717FFB7E7142B07D9542B1AD80C
:1049F000140B26006F346E36E400BBE71E005C33F8
:104A00005B36DC00B6E70122B610B240466832439E
:104A10004260BDE7D9609960CB608B60012313438E
:104A20004B608A5098E7AA246400A34205D8D40BAF
:104A3000260078347736E4009CE70D4CA34205D875
:104A4000940C26007D347C36E40093E7FE247E2619
:104A5000A4008FE7330013434B603A607CE7C04605
:104A600050080020580800205C0C0020D00D0020C9
:104A700054050000F8B54746CE4680B5B8278046B5
:104A800089460026BF0047447B68BC685D1E0DD484
:104A9000A389012B07D90E22A35E013303D0210085
:104AA0004046C84706436834013DF1D23F68002FB5
:104AB000EAD13000C0BCB946B046F8BD7047C04628
:104AC0007047C0467047C0467047C04610B50248A0
:104AD000FFF7F8FF10BDC0469C0D002010B502483E
:104AE000FFF7F2FF10BDC0469C0D0020002370B5FB
:104AF000064D040008002B60FDF7C8F9431C00D0E8
:104B000070BD2B68002BFBD02360F9E7840F0020D9
:104B100070B50C000E25495F00F064F9002803DB36
:104B2000236D1B18236570BDA389024A1340A3811E
:104B3000F9E7C046FFEFFFFFF8B50C001F000C239C
:104B4000C95E05001600CB050AD40A4B3200194095
:104B50002800A1810E23E15E3B0000F09BF8F8BD28
:104B60000E23E15E0022022300F028F90C23E15E0F
:104B7000EBE7C046FFEFFFFF70B50C000E25495F65
:104B800000F01CF9431C06D08023A2895B0113436B
:104B9000A381206570BDA389014A1340A381F9E771
:104BA000FFEFFFFF10B50E23C95E00F087F810BDC0
:104BB000024670B50A4392072AD11E4DEE0104C881
:104BC00008C9541B9443344017D0D0B2D9B2401A0C
:104BD0002106014310D190B299B2401A2104014339
:104BE0000AD110021902000A090A401A21020143DF
:104BF00002D1100E190E401A70BD9A42DFD010BAC1
:104C000019BA884201D9012070BD0020C04370BD8F
:104C100002780B7801300131002A09D09A4207D17D
:104C200002780B7801300131002A01D09A42EFD08E
:104C3000D01A70BD0101010110B583070AD003002D
:104C4000032102E001330B4205D01A78002AF9D182
:104C5000181A10BD030019680C4A0D4C8A188A43B3
:104C600022420FD15968094A04338A188A432242E2
:104C700008D15968054A04338A188A432242F1D080
:104C800000E001331A78002AFBD1E1E7FFFEFEFEC7
:104C90008080808070B50400080011001A00002395
:104CA000054D2B60FFF7B4F8431C00D070BD2B6896
:104CB000002BFBD02360F9E7840F0020002370B5A0
:104CC000064D040008002B60FFF7B3F8431C00D02A
:104CD00070BD2B68002BFBD02360F9E7840F002008
:104CE000F8B506000C1E4DD0002802D0836B002BB7
:104CF0004AD00127636E3B4235D00C22A35E002BC5
:104D000040D021003000FFF7CBFBE36A0500002B09
:104D100004D03000E169984700283CDBA3891B06DA
:104D20003ED4216B002908D023004033994202D0A1
:104D30003000FFF7BDFD00232363616C002904D020
:104D40003000FFF7B5FD00236364FFF753FD002338
:104D5000A381636EDB072CD5A06DFFF7B1FEFFF7D3
:104D600051FD2800F8BDA3899B05CAD4A06DFFF7AB
:104D7000A9FE0C22A35E002BC3D1636E1D003D4033
:104D80003B4212D00025ECE70127FFF7A3FC636E3E
:104D90003B42B2D1E7E70125A3896D421B06C0D58E
:104DA00030002169FFF784FDBBE7A06DFFF78CFEA3
:104DB000D7E7A06DFFF788FECEE7C04670B50400C8
:104DC000080011001A000023054D2B60FFF734F88E
:104DD000431C00D070BD2B68002BFBD02360F9E78B
:104DE000840F002070B50400080011001A00002391
:104DF000054D2B60FEF7FAFF431C00D070BD2B68F9
:104E0000002BFBD02360F9E7840F0020F8B5C046E3
:104E100001B40248844601BC604700BF7D02002007
:104E200001B40248844601BC604700BFC9010020AC
:104E300001B40248844601BC604700BF550300200E
:104E400001B40248844601BC604700BF55030020FE
:104E500001B40248844601BC604700BF95010020B0
:104E600064656C7461203E3D202D3230343820263C
:104E7000262064656C7461203C3D2032303436203D
:104E8000262620212864656C7461202620312900A3
:104E9000433A2F50726F6772616D2046696C65737B
:104EA0002F5261737062657272792050692F506958
:104EB000636F2053444B2076312E352E312F70698D
:104EC000636F2D73646B2F7372632F7270325F6325
:104ED0006F6D6D6F6E2F68617264776172655F6967
:104EE00072712F6972712E630000000021286465C1
:104EF0006C7461203E3E20313175290063757272F9
:104F0000656E74203D3D205F5F756E68616E646CF8
:104F100065645F757365725F697271207C7C206364
:104F2000757272656E74203D3D2068616E646C65BB
:104F3000720000006972715F68616E6465725F6320
:104F40006861696E5F667265655F736C6F745F68D8
:104F5000656164203E3D203000000000767461628F
:104F60006C655F68616E646C6572203D3D205F5FBB
:104F7000756E68616E646C65645F757365725F6998
:104F800072710000212828282875696E7470747267
:104F90005F7429767461626C655F68616E646C65CC
:104FA0007229202D20282875696E747074725F74C0
:104FB000296972715F68616E646C65725F636861B4
:104FC000696E5F736C6F747329202D2031292573EE
:104FD000697A656F6628737472756374206972717B
:104FE0005F68616E646C65725F636861696E5F7350
:104FF0006C6F74292900000030783163203D3D201A
:10500000282A696E7374293E3E3131750000000014
:1050100021657863657074696F6E207C7C2065788B
:1050200063657074696F6E203D3D206E756D202B39
:1050300020565441424C455F46495253545F4952B1
:105040005100000066616C736500000069735F7356
:1050500068617265645F6972715F7261775F6861D0
:105060006E646C657228736C6F745F68616E646CDB
:1050700065722900657863657074696F6E00000061
:10508000666F756E640000006972715F6164645FD1
:105090007461696C5F746F5F667265655F6C69737C
:1050A00074000000696E736572745F6272616E6392
:1050B000685F616E645F6C696E6B00006972715F3E
:1050C00072656D6F76655F68616E646C6572000015
:1050D0006D616B655F6272616E6368007265736FAC
:1050E0006C76655F6272616E636800006972715F01
:1050F0007365745F6578636C75736976655F686105
:105100006E646C6572000000746F74616C00000066
:10511000433A2F50726F6772616D2046696C6573F8
:105120002F5261737062657272792050692F5069D5
:10513000636F2053444B2076312E352E312F70690A
:10514000636F2D73646B2F7372632F636F6D6D6F5D
:105150006E2F7069636F5F73796E632F6D75746501
:10516000782E63006D74782D3E636F72652E7370B8
:10517000696E5F6C6F636B0075735F73696E6365F7
:105180005F626F6F74203C3D20494E5436345F4D52
:1051900041580000433A2F50726F6772616D20468C
:1051A000696C65732F5261737062657272792050F9
:1051B000692F5069636F2053444B2076312E352E72
:1051C000312F7069636F2D73646B2F7372632F635C
:1051D0006F6D6D6F6E2F7069636F5F626173652FA6
:1051E000696E636C7564652F7069636F2F74797075
:1051F00065732E68000000006C6F636B5F69735FFE
:105200006F776E65725F69645F76616C6964286D43
:1052100074782D3E6F776E65722900006D74782D5D
:105220003E656E7465725F636F756E74000000009A
:105230006D757465785F6578697400006D75746567
:10524000785F656E7465725F626C6F636B5F756EBD
:1052500074696C0072742D3E616C61726D5F69647B
:10526000203D3D2069640000433A2F50726F677201
:10527000616D2046696C65732F526173706265724F
:1052800072792050692F5069636F2053444B207608
:10529000312E352E312F7069636F2D73646B2F7330
:1052A00072632F636F6D6D6F6E2F7069636F5F74C4
:1052B000696D652F74696D652E6300006964202631
:1052C00026206964203C3D20706F6F6C2D3E686520
:1052D00061702D3E6D61785F6E6F646573000000D4
:1052E0006964202626206964203C3D206865617041
:1052F0002D3E6D61785F6E6F64657300433A2F5089
:10530000726F6772616D2046696C65732F526173AD
:105310007062657272792050692F5069636F2053F3
:10532000444B2076312E352E312F7069636F2D73EB
:10533000646B2F7372632F636F6D6D6F6E2F706967
:10534000636F5F7574696C2F696E636C7564652F2C
:105350007069636F2F7574696C2F70686561702E4A
:1053600068000000706172656E745F69640000001F
:105370006368696C645F6964000000007061726555
:105380006E745F696420213D206368696C645F69A5
:10539000640000002170685F636F6E7461696E73F2
:1053A0005F6E6F646528706F6F6C2D3E686561700D
:1053B0002C2072657573655F6964290072656D6F75
:1053C0007665645F6964203D3D206E6578745F6931
:1053D0006400000063616C6C6261636B000000003C
:1053E000706F6F6C2D3E616C61726D5F696E5F7086
:1053F000726F6772657373203D3D206D616B655FF1
:105400007075626C69635F69642869645F68696765
:10541000682C206E6578745F6964290069642026B1
:1054200026202170685F636F6E7461696E735F6EB2
:105430006F646528686561702C206964290000002C
:1054400021686561702D3E667265655F7461696C87
:105450005F69640064656661756C745F616C61723C
:105460006D5F706F6F6C5F696E697469616C697A8A
:105470006564282900000000616C61726D5F6964D9
:1054800020213D20706F6F6C2D3E616C61726D5FED
:10549000696E5F70726F677265737300726300008C
:1054A000417474656D7074656420746F20736C65ED
:1054B000657020696E73696465206F6620616E2077
:1054C000657863657074696F6E2068616E646C6581
:1054D000723B2075736520627573795F77616974BB
:1054E00020696620796F75206D7573740000000067
:1054F000616C61726D5F706F6F6C5F63616E63652D
:105500006C5F616C61726D007570646174655F756C
:10551000735F73696E63655F626F6F740000000094
:10552000616C61726D5F706F6F6C5F616C61726DE9
:105530005F63616C6C6261636B0000006765745F40
:10554000656E747279000000616C61726D5F706FDE
:105550006F6C5F6765745F64656661756C7400008D
:105560006765745F656E7472795F69645F686967A7
:105570006800000070685F667265655F6E6F6465E5
:105580000000000070685F6164645F6368696C6458
:105590005F6E6F646500000070685F696E736572AE
:1055A000745F6E6F6465000070685F6765745F6E3E
:1055B0006F6465006164645F616C61726D5F756EDC
:1055C0006465725F6C6F636B000000000000000098
:1055D000FFFFFFFFFFFFFF7F486172647761726525
:1055E00020616C61726D20256420616C726561645C
:1055F0007920636C61696D656400000074696D6594
:10560000725F68772D3E696E747320262031752095
:105610003C3C20616C61726D5F6E756D0000000036
:10562000433A2F50726F6772616D2046696C6573E3
:105630002F5261737062657272792050692F5069C0
:10564000636F2053444B2076312E352E312F7069F5
:10565000636F2D73646B2F7372632F7270325F638D
:105660006F6D6D6F6E2F68617264776172655F74C4
:10567000696D65722F74696D65722E63000000009C
:1056800068617264776172655F616C61726D5F738E
:1056900065745F74617267657400000075706461A1
:1056A00074655F75735F73696E63655F626F6F7456
:1056B00000000000726F6F745F696400433A2F50FE
:1056C000726F6772616D2046696C65732F526173EA
:1056D0007062657272792050692F5069636F205330
:1056E000444B2076312E352E312F7069636F2D7328
:1056F000646B2F7372632F636F6D6D6F6E2F7069A4
:10570000636F5F7574696C2F70686561702E6300DC
:105710002170685F6765745F6E6F64652868656196
:10572000702C20726F6F745F6964292D3E736962FB
:105730006C696E67000000002170685F6765745FC8
:105740006E6F646528686561702C20726F6F745F7E
:105750006964292D3E706172656E74006E65775FB5
:105760007375625F7472656520213D2068656170A4
:105770002D3E726F6F745F696400000070685F7225
:10578000656D6F76655F616E645F667265655F6E9D
:105790006F64650070685F72656D6F76655F616EDE
:1057A000795F68656164000070685F6164645F636D
:1057B00068696C645F6E6F646500000070685F67A5
:1057C00065745F6E6F6465007372635F66726571A6
:1057D000203E3D206672657100000000433A2F5064
:1057E000726F6772616D2046696C65732F526173C9
:1057F0007062657272792050692F5069636F20530F
:10580000444B2076312E352E312F7069636F2D7306
:10581000646B2F7372632F7270325F636F6D6D6F85
:105820006E2F68617264776172655F636C6F636B22
:10583000732F636C6F636B732E630000636C6F6315
:105840006B5F636F6E6669677572650076636F5F25
:1058500066726571203E3D20285049434F5F504C91
:105860004C5F56434F5F4D494E5F465245515F4B2B
:10587000485A202A204B485A292026262076636F32
:105880005F66726571203C3D20285049434F5F5050
:105890004C4C5F56434F5F4D41585F465245515FF8
:1058A0004B485A202A204B485A290000433A2F508F
:1058B000726F6772616D2046696C65732F526173F8
:1058C0007062657272792050692F5069636F20533E
:1058D000444B2076312E352E312F7069636F2D7336
:1058E000646B2F7372632F7270325F636F6D6D6FB5
:1058F0006E2F68617264776172655F706C6C2F7077
:105900006C6C2E63000000006662646976203E3D88
:10591000203136202626206662646976203C3D20B0
:105920003332300028706F73745F64697631203EC3
:105930003D203120262620706F73745F64697631B4
:10594000203C3D2037292026262028706F73745F65
:1059500064697632203E3D203120262620706F7308
:10596000745F64697632203C3D20372900000000D6
:105970007265665F66726571203C3D202876636FB4
:105980005F66726571202F2031362900706C6C5F64
:10599000696E6974000000002C2066756E6374697E
:1059A0006F6E3A2000000000617373657274696F56
:1059B0006E2022257322206661696C65643A206638
:1059C000696C6520222573222C206C696E65202568
:1059D00064257325730A000031203D3D2028756938
:1059E0006E747074725F74296C2D3E7370696E5F93
:1059F0006C6F636B00000000433A2F50726F677248
:105A0000616D2046696C65732F52617370626572B7
:105A100072792050692F5069636F2053444B207670
:105A2000312E352E312F7069636F2D73646B2F7398
:105A300072632F7270325F636F6D6D6F6E2F70695E
:105A4000636F5F72756E74696D652F72756E7469C0
:105A50006D652E63000000000A2A2A2A2050414E5C
:105A60004943202A2A2A0A0072756E74696D655F9F
:105A7000696E697400000000666E6900666E692BCD
:105A8000000000006E616E00666E692D000000006F
:105A9000DA2B00108A2B00108A2B0010E42B001048
:105AA0008A2B00108A2B00108A2B00108A2B0010E2
:105AB0008A2B00108A2B00108A2B0010D02B00108C
:105AC0008A2B0010C62B00108A2B00108A2B001086
:105AD000BC2B00107C2C0010A22C0010BA2C001043
